{
  "_format": "hh-sol-artifact-1",
  "contractName": "WINMarketplaceProducts1",
  "sourceName": "contracts/WINMarketplaceProducts.sol",
  "abi": [
    {
      "anonymous": false,
      "inputs": [
        {
          "indexed": false,
          "internalType": "bool",
          "name": "bid",
          "type": "bool"
        }
      ],
      "name": "BidProduct",
      "type": "event"
    },
    {
      "anonymous": false,
      "inputs": [
        {
          "indexed": false,
          "internalType": "string",
          "name": "name",
          "type": "string"
        },
        {
          "indexed": false,
          "internalType": "bool",
          "name": "sell",
          "type": "bool"
        },
        {
          "indexed": false,
          "internalType": "address payable",
          "name": "owner",
          "type": "address"
        },
        {
          "indexed": false,
          "internalType": "uint256",
          "name": "price",
          "type": "uint256"
        }
      ],
      "name": "BuyProduct",
      "type": "event"
    },
    {
      "anonymous": false,
      "inputs": [
        {
          "indexed": false,
          "internalType": "string",
          "name": "name",
          "type": "string"
        },
        {
          "indexed": false,
          "internalType": "string",
          "name": "description",
          "type": "string"
        },
        {
          "indexed": false,
          "internalType": "string",
          "name": "desprivate",
          "type": "string"
        },
        {
          "indexed": false,
          "internalType": "string",
          "name": "image",
          "type": "string"
        },
        {
          "indexed": false,
          "internalType": "bool",
          "name": "sell",
          "type": "bool"
        },
        {
          "indexed": false,
          "internalType": "bool",
          "name": "bid",
          "type": "bool"
        },
        {
          "indexed": false,
          "internalType": "bool",
          "name": "active",
          "type": "bool"
        },
        {
          "indexed": false,
          "internalType": "address payable",
          "name": "owner",
          "type": "address"
        },
        {
          "indexed": false,
          "internalType": "uint256",
          "name": "price",
          "type": "uint256"
        },
        {
          "indexed": false,
          "internalType": "string",
          "name": "category",
          "type": "string"
        },
        {
          "indexed": false,
          "internalType": "string",
          "name": "qr",
          "type": "string"
        }
      ],
      "name": "CreatedProduct",
      "type": "event"
    },
    {
      "anonymous": false,
      "inputs": [
        {
          "indexed": false,
          "internalType": "bool",
          "name": "active",
          "type": "bool"
        }
      ],
      "name": "DeleteProduct",
      "type": "event"
    },
    {
      "anonymous": false,
      "inputs": [
        {
          "indexed": false,
          "internalType": "uint256",
          "name": "id",
          "type": "uint256"
        },
        {
          "indexed": false,
          "internalType": "address",
          "name": "newOwner",
          "type": "address"
        },
        {
          "indexed": false,
          "internalType": "uint256",
          "name": "newPrice",
          "type": "uint256"
        }
      ],
      "name": "EndBid",
      "type": "event"
    },
    {
      "anonymous": false,
      "inputs": [
        {
          "indexed": false,
          "internalType": "bool",
          "name": "sell",
          "type": "bool"
        }
      ],
      "name": "SellProduct",
      "type": "event"
    },
    {
      "anonymous": false,
      "inputs": [
        {
          "indexed": false,
          "internalType": "uint256",
          "name": "id",
          "type": "uint256"
        },
        {
          "indexed": false,
          "internalType": "string",
          "name": "name",
          "type": "string"
        },
        {
          "indexed": false,
          "internalType": "string",
          "name": "description",
          "type": "string"
        },
        {
          "indexed": false,
          "internalType": "string",
          "name": "desprivate",
          "type": "string"
        },
        {
          "indexed": false,
          "internalType": "string",
          "name": "image",
          "type": "string"
        },
        {
          "indexed": false,
          "internalType": "uint256",
          "name": "price",
          "type": "uint256"
        },
        {
          "indexed": false,
          "internalType": "string",
          "name": "category",
          "type": "string"
        },
        {
          "indexed": false,
          "internalType": "string",
          "name": "qr",
          "type": "string"
        }
      ],
      "name": "UpdateProduct",
      "type": "event"
    },
    {
      "inputs": [
        {
          "internalType": "uint256",
          "name": "_id",
          "type": "uint256"
        },
        {
          "internalType": "bool",
          "name": "bidn",
          "type": "bool"
        }
      ],
      "name": "bidProduct",
      "outputs": [],
      "stateMutability": "nonpayable",
      "type": "function"
    },
    {
      "inputs": [
        {
          "internalType": "uint256",
          "name": "_id",
          "type": "uint256"
        }
      ],
      "name": "buyProduct",
      "outputs": [],
      "stateMutability": "payable",
      "type": "function"
    },
    {
      "inputs": [],
      "name": "count",
      "outputs": [
        {
          "internalType": "uint256",
          "name": "",
          "type": "uint256"
        }
      ],
      "stateMutability": "view",
      "type": "function"
    },
    {
      "inputs": [
        {
          "internalType": "string",
          "name": "name",
          "type": "string"
        },
        {
          "internalType": "string",
          "name": "description",
          "type": "string"
        },
        {
          "internalType": "string",
          "name": "desprivate",
          "type": "string"
        },
        {
          "internalType": "string",
          "name": "image",
          "type": "string"
        },
        {
          "internalType": "uint256",
          "name": "price",
          "type": "uint256"
        },
        {
          "internalType": "string",
          "name": "category",
          "type": "string"
        },
        {
          "internalType": "string",
          "name": "qr",
          "type": "string"
        }
      ],
      "name": "createProduct",
      "outputs": [],
      "stateMutability": "nonpayable",
      "type": "function"
    },
    {
      "inputs": [
        {
          "internalType": "uint256",
          "name": "_id",
          "type": "uint256"
        }
      ],
      "name": "deleteProduct",
      "outputs": [],
      "stateMutability": "nonpayable",
      "type": "function"
    },
    {
      "inputs": [
        {
          "internalType": "uint256",
          "name": "_id",
          "type": "uint256"
        },
        {
          "internalType": "uint256",
          "name": "newPrice",
          "type": "uint256"
        },
        {
          "internalType": "address payable",
          "name": "newOwner",
          "type": "address"
        }
      ],
      "name": "endBid",
      "outputs": [],
      "stateMutability": "nonpayable",
      "type": "function"
    },
    {
      "inputs": [
        {
          "internalType": "uint256",
          "name": "_id",
          "type": "uint256"
        },
        {
          "internalType": "bool",
          "name": "selln",
          "type": "bool"
        }
      ],
      "name": "sellProduct",
      "outputs": [],
      "stateMutability": "nonpayable",
      "type": "function"
    },
    {
      "inputs": [],
      "name": "storeName",
      "outputs": [
        {
          "internalType": "string",
          "name": "",
          "type": "string"
        }
      ],
      "stateMutability": "view",
      "type": "function"
    },
    {
      "inputs": [
        {
          "internalType": "uint256",
          "name": "",
          "type": "uint256"
        }
      ],
      "name": "storeProducts",
      "outputs": [
        {
          "internalType": "uint256",
          "name": "id",
          "type": "uint256"
        },
        {
          "internalType": "string",
          "name": "name",
          "type": "string"
        },
        {
          "internalType": "string",
          "name": "description",
          "type": "string"
        },
        {
          "internalType": "string",
          "name": "desprivate",
          "type": "string"
        },
        {
          "internalType": "string",
          "name": "image",
          "type": "string"
        },
        {
          "internalType": "bool",
          "name": "sell",
          "type": "bool"
        },
        {
          "internalType": "bool",
          "name": "bid",
          "type": "bool"
        },
        {
          "internalType": "bool",
          "name": "active",
          "type": "bool"
        },
        {
          "internalType": "address payable",
          "name": "owner",
          "type": "address"
        },
        {
          "internalType": "uint256",
          "name": "price",
          "type": "uint256"
        },
        {
          "internalType": "string",
          "name": "category",
          "type": "string"
        },
        {
          "internalType": "string",
          "name": "qr",
          "type": "string"
        }
      ],
      "stateMutability": "view",
      "type": "function"
    },
    {
      "inputs": [
        {
          "internalType": "uint256",
          "name": "_id",
          "type": "uint256"
        },
        {
          "internalType": "string",
          "name": "name",
          "type": "string"
        },
        {
          "internalType": "string",
          "name": "description",
          "type": "string"
        },
        {
          "internalType": "string",
          "name": "desprivate",
          "type": "string"
        },
        {
          "internalType": "string",
          "name": "image",
          "type": "string"
        },
        {
          "internalType": "uint256",
          "name": "price",
          "type": "uint256"
        },
        {
          "internalType": "string",
          "name": "category",
          "type": "string"
        },
        {
          "internalType": "string",
          "name": "qr",
          "type": "string"
        }
      ],
      "name": "updateProduct",
      "outputs": [],
      "stateMutability": "nonpayable",
      "type": "function"
    }
  ],
  "bytecode": "0x60806040526040518060400160405280601481526020017f57494e204d61726b6574706c6163652054656368000000000000000000000000815250600090816200004a9190620002de565b5060006001553480156200005d57600080fd5b50620003c5565b600081519050919050565b7f4e487b7100000000000000000000000000000000000000000000000000000000600052604160045260246000fd5b7f4e487b7100000000000000000000000000000000000000000000000000000000600052602260045260246000fd5b60006002820490506001821680620000e657607f821691505b602082108103620000fc57620000fb6200009e565b5b50919050565b60008190508160005260206000209050919050565b60006020601f8301049050919050565b600082821b905092915050565b600060088302620001667fffffffffffffffffffffffffffffffffffffffffffffffffffffffffffffffff8262000127565b62000172868362000127565b95508019841693508086168417925050509392505050565b6000819050919050565b6000819050919050565b6000620001bf620001b9620001b3846200018a565b62000194565b6200018a565b9050919050565b6000819050919050565b620001db836200019e565b620001f3620001ea82620001c6565b84845462000134565b825550505050565b600090565b6200020a620001fb565b62000217818484620001d0565b505050565b5b818110156200023f576200023360008262000200565b6001810190506200021d565b5050565b601f8211156200028e57620002588162000102565b620002638462000117565b8101602085101562000273578190505b6200028b620002828562000117565b8301826200021c565b50505b505050565b600082821c905092915050565b6000620002b36000198460080262000293565b1980831691505092915050565b6000620002ce8383620002a0565b9150826002028217905092915050565b620002e98262000064565b67ffffffffffffffff8111156200030557620003046200006f565b5b620003118254620000cd565b6200031e82828562000243565b600060209050601f83116001811462000356576000841562000341578287015190505b6200034d8582620002c0565b865550620003bd565b601f198416620003668662000102565b60005b82811015620003905784890151825560018201915060208501945060208101905062000369565b86831015620003b05784890151620003ac601f891682620002a0565b8355505b6001600288020188555050505b505050505050565b6138ba80620003d56000396000f3fe6080604052600436106100915760003560e01c80638642269e116100595780638642269e14610167578063ae97d3f914610183578063dadf0b73146101ac578063e36fe830146101d5578063ed90c7b71461021d57610091565b806302b3127a1461009657806306661abd146100bf5780632f092b10146100ea57806351c2b79014610113578063521936e61461013c575b600080fd5b3480156100a257600080fd5b506100bd60048036038101906100b891906124ce565b610246565b005b3480156100cb57600080fd5b506100d4610836565b6040516100e1919061251d565b60405180910390f35b3480156100f657600080fd5b50610111600480360381019061010c919061267e565b61083c565b005b34801561011f57600080fd5b5061013a600480360381019061013591906124ce565b610aaf565b005b34801561014857600080fd5b5061015161109f565b60405161015e919061285b565b60405180910390f35b610181600480360381019061017c919061287d565b61112d565b005b34801561018f57600080fd5b506101aa60048036038101906101a59190612908565b6118b2565b005b3480156101b857600080fd5b506101d360048036038101906101ce919061295b565b611a57565b005b3480156101e157600080fd5b506101fc60048036038101906101f7919061287d565b611e6e565b6040516102149c9b9a99989796959493929190612ac3565b60405180910390f35b34801561022957600080fd5b50610244600480360381019061023f919061287d565b612245565b005b600060026000848152602001908152602001600020604051806101800160405290816000820154815260200160018201805461028190612bd6565b80601f01602080910402602001604051908101604052809291908181526020018280546102ad90612bd6565b80156102fa5780601f106102cf576101008083540402835291602001916102fa565b820191906000526020600020905b8154815290600101906020018083116102dd57829003601f168201915b5050505050815260200160028201805461031390612bd6565b80601f016020809104026020016040519081016040528092919081815260200182805461033f90612bd6565b801561038c5780601f106103615761010080835404028352916020019161038c565b820191906000526020600020905b81548152906001019060200180831161036f57829003601f168201915b505050505081526020016003820180546103a590612bd6565b80601f01602080910402602001604051908101604052809291908181526020018280546103d190612bd6565b801561041e5780601f106103f35761010080835404028352916020019161041e565b820191906000526020600020905b81548152906001019060200180831161040157829003601f168201915b5050505050815260200160048201805461043790612bd6565b80601f016020809104026020016040519081016040528092919081815260200182805461046390612bd6565b80156104b05780601f10610485576101008083540402835291602001916104b0565b820191906000526020600020905b81548152906001019060200180831161049357829003601f168201915b505050505081526020016005820160009054906101000a900460ff161515151581526020016005820160019054906101000a900460ff161515151581526020016005820160029054906101000a900460ff161515151581526020016005820160039054906101000a900473ffffffffffffffffffffffffffffffffffffffff1673ffffffffffffffffffffffffffffffffffffffff1673ffffffffffffffffffffffffffffffffffffffff1681526020016006820154815260200160078201805461057a90612bd6565b80601f01602080910402602001604051908101604052809291908181526020018280546105a690612bd6565b80156105f35780601f106105c8576101008083540402835291602001916105f3565b820191906000526020600020905b8154815290600101906020018083116105d657829003601f168201915b5050505050815260200160088201805461060c90612bd6565b80601f016020809104026020016040519081016040528092919081815260200182805461063890612bd6565b80156106855780601f1061065a57610100808354040283529160200191610685565b820191906000526020600020905b81548152906001019060200180831161066857829003601f168201915b5050505050815250509050818160c001901515908115158152505080600260008581526020019081526020016000206000820151816000015560208201518160010190816106d39190612db3565b5060408201518160020190816106e99190612db3565b5060608201518160030190816106ff9190612db3565b5060808201518160040190816107159190612db3565b5060a08201518160050160006101000a81548160ff02191690831515021790555060c08201518160050160016101000a81548160ff02191690831515021790555060e08201518160050160026101000a81548160ff0219169083151502179055506101008201518160050160036101000a81548173ffffffffffffffffffffffffffffffffffffffff021916908373ffffffffffffffffffffffffffffffffffffffff16021790555061012082015181600601556101408201518160070190816107df9190612db3565b506101608201518160080190816107f69190612db3565b509050507f0d8d5aa01e2596df18aeacaa7b6e9d63daf05ad9177c5d9b7ada955ecdd2daf6826040516108299190612e85565b60405180910390a1505050565b60015481565b6000600260008a81526020019081526020016000209050878160010190816108649190612db3565b50868160020190816108769190612db3565b50858160030190816108889190612db3565b508481600401908161089a9190612db3565b50838160060181905550828160070190816108b59190612db3565b50818160080190816108c79190612db3565b5080600260008b815260200190815260200160002060008201548160000155600182018160010190816108fa9190612eb6565b506002820181600201908161090f9190612eb6565b50600382018160030190816109249190612eb6565b50600482018160040190816109399190612eb6565b506005820160009054906101000a900460ff168160050160006101000a81548160ff0219169083151502179055506005820160019054906101000a900460ff168160050160016101000a81548160ff0219169083151502179055506005820160029054906101000a900460ff168160050160026101000a81548160ff0219169083151502179055506005820160039054906101000a900473ffffffffffffffffffffffffffffffffffffffff168160050160036101000a81548173ffffffffffffffffffffffffffffffffffffffff021916908373ffffffffffffffffffffffffffffffffffffffff1602179055506006820154816006015560078201816007019081610a469190612eb6565b5060088201816008019081610a5b9190612eb6565b509050507f11eab209e6f0a8a6d6bbe087eadf185c42850be222cb5797d473def010194c008989898989898989604051610a9c989796959493929190612f9e565b60405180910390a1505050505050505050565b6000600260008481526020019081526020016000206040518061018001604052908160008201548152602001600182018054610aea90612bd6565b80601f0160208091040260200160405190810160405280929190818152602001828054610b1690612bd6565b8015610b635780601f10610b3857610100808354040283529160200191610b63565b820191906000526020600020905b815481529060010190602001808311610b4657829003601f168201915b50505050508152602001600282018054610b7c90612bd6565b80601f0160208091040260200160405190810160405280929190818152602001828054610ba890612bd6565b8015610bf55780601f10610bca57610100808354040283529160200191610bf5565b820191906000526020600020905b815481529060010190602001808311610bd857829003601f168201915b50505050508152602001600382018054610c0e90612bd6565b80601f0160208091040260200160405190810160405280929190818152602001828054610c3a90612bd6565b8015610c875780601f10610c5c57610100808354040283529160200191610c87565b820191906000526020600020905b815481529060010190602001808311610c6a57829003601f168201915b50505050508152602001600482018054610ca090612bd6565b80601f0160208091040260200160405190810160405280929190818152602001828054610ccc90612bd6565b8015610d195780601f10610cee57610100808354040283529160200191610d19565b820191906000526020600020905b815481529060010190602001808311610cfc57829003601f168201915b505050505081526020016005820160009054906101000a900460ff161515151581526020016005820160019054906101000a900460ff161515151581526020016005820160029054906101000a900460ff161515151581526020016005820160039054906101000a900473ffffffffffffffffffffffffffffffffffffffff1673ffffffffffffffffffffffffffffffffffffffff1673ffffffffffffffffffffffffffffffffffffffff16815260200160068201548152602001600782018054610de390612bd6565b80601f0160208091040260200160405190810160405280929190818152602001828054610e0f90612bd6565b8015610e5c5780601f10610e3157610100808354040283529160200191610e5c565b820191906000526020600020905b815481529060010190602001808311610e3f57829003601f168201915b50505050508152602001600882018054610e7590612bd6565b80601f0160208091040260200160405190810160405280929190818152602001828054610ea190612bd6565b8015610eee5780601f10610ec357610100808354040283529160200191610eee565b820191906000526020600020905b815481529060010190602001808311610ed157829003601f168201915b5050505050815250509050818160a00190151590811515815250508060026000858152602001908152602001600020600082015181600001556020820151816001019081610f3c9190612db3565b506040820151816002019081610f529190612db3565b506060820151816003019081610f689190612db3565b506080820151816004019081610f7e9190612db3565b5060a08201518160050160006101000a81548160ff02191690831515021790555060c08201518160050160016101000a81548160ff02191690831515021790555060e08201518160050160026101000a81548160ff0219169083151502179055506101008201518160050160036101000a81548173ffffffffffffffffffffffffffffffffffffffff021916908373ffffffffffffffffffffffffffffffffffffffff16021790555061012082015181600601556101408201518160070190816110489190612db3565b5061016082015181600801908161105f9190612db3565b509050507f9ade3b711f071c912a2ae272d700080f8d9b21c87055636dcb63978989e15e3b826040516110929190612e85565b60405180910390a1505050565b600080546110ac90612bd6565b80601f01602080910402602001604051908101604052809291908181526020018280546110d890612bd6565b80156111255780601f106110fa57610100808354040283529160200191611125565b820191906000526020600020905b81548152906001019060200180831161110857829003601f168201915b505050505081565b600060026000838152602001908152602001600020604051806101800160405290816000820154815260200160018201805461116890612bd6565b80601f016020809104026020016040519081016040528092919081815260200182805461119490612bd6565b80156111e15780601f106111b6576101008083540402835291602001916111e1565b820191906000526020600020905b8154815290600101906020018083116111c457829003601f168201915b505050505081526020016002820180546111fa90612bd6565b80601f016020809104026020016040519081016040528092919081815260200182805461122690612bd6565b80156112735780601f1061124857610100808354040283529160200191611273565b820191906000526020600020905b81548152906001019060200180831161125657829003601f168201915b5050505050815260200160038201805461128c90612bd6565b80601f01602080910402602001604051908101604052809291908181526020018280546112b890612bd6565b80156113055780601f106112da57610100808354040283529160200191611305565b820191906000526020600020905b8154815290600101906020018083116112e857829003601f168201915b5050505050815260200160048201805461131e90612bd6565b80601f016020809104026020016040519081016040528092919081815260200182805461134a90612bd6565b80156113975780601f1061136c57610100808354040283529160200191611397565b820191906000526020600020905b81548152906001019060200180831161137a57829003601f168201915b505050505081526020016005820160009054906101000a900460ff161515151581526020016005820160019054906101000a900460ff161515151581526020016005820160029054906101000a900460ff161515151581526020016005820160039054906101000a900473ffffffffffffffffffffffffffffffffffffffff1673ffffffffffffffffffffffffffffffffffffffff1673ffffffffffffffffffffffffffffffffffffffff1681526020016006820154815260200160078201805461146190612bd6565b80601f016020809104026020016040519081016040528092919081815260200182805461148d90612bd6565b80156114da5780601f106114af576101008083540402835291602001916114da565b820191906000526020600020905b8154815290600101906020018083116114bd57829003601f168201915b505050505081526020016008820180546114f390612bd6565b80601f016020809104026020016040519081016040528092919081815260200182805461151f90612bd6565b801561156c5780601f106115415761010080835404028352916020019161156c565b820191906000526020600020905b81548152906001019060200180831161154f57829003601f168201915b5050505050815250509050600081610100015190508160a001516115c5576040517f08c379a00000000000000000000000000000000000000000000000000000000081526004016115bc90613092565b60405180910390fd5b3373ffffffffffffffffffffffffffffffffffffffff168173ffffffffffffffffffffffffffffffffffffffff1603611633576040517f08c379a000000000000000000000000000000000000000000000000000000000815260040161162a906130fe565b60405180910390fd5b81610120015134101561167b576040517f08c379a000000000000000000000000000000000000000000000000000000000815260040161167290613190565b60405180910390fd5b8073ffffffffffffffffffffffffffffffffffffffff166108fc349081150290604051600060405180830381858888f193505050501580156116c1573d6000803e3d6000fd5b503382610100019073ffffffffffffffffffffffffffffffffffffffff16908173ffffffffffffffffffffffffffffffffffffffff168152505060008260a0019015159081151581525050816002600085815260200190815260200160002060008201518160000155602082015181600101908161173f9190612db3565b5060408201518160020190816117559190612db3565b50606082015181600301908161176b9190612db3565b5060808201518160040190816117819190612db3565b5060a08201518160050160006101000a81548160ff02191690831515021790555060c08201518160050160016101000a81548160ff02191690831515021790555060e08201518160050160026101000a81548160ff0219169083151502179055506101008201518160050160036101000a81548173ffffffffffffffffffffffffffffffffffffffff021916908373ffffffffffffffffffffffffffffffffffffffff160217905550610120820151816006015561014082015181600701908161184b9190612db3565b506101608201518160080190816118629190612db3565b509050507f5c486e06f32e8967d75263ff34842d4aee2d3c4252f800869d0d0e3a0e7356cf82602001516000338561012001516040516118a594939291906131b0565b60405180910390a1505050565b6002600084815260200190815260200160002060050160029054906101000a900460ff16611915576040517f08c379a000000000000000000000000000000000000000000000000000000000815260040161190c90613248565b60405180910390fd5b6002600084815260200190815260200160002060050160019054906101000a900460ff16611978576040517f08c379a000000000000000000000000000000000000000000000000000000000815260040161196f906132b4565b60405180910390fd5b816002600085815260200190815260200160002060060181905550806002600085815260200190815260200160002060050160036101000a81548173ffffffffffffffffffffffffffffffffffffffff021916908373ffffffffffffffffffffffffffffffffffffffff16021790555060006002600085815260200190815260200160002060050160016101000a81548160ff0219169083151502179055507f998ce443ef125070576966a792b38b6ac323a62ef52898a8836cb0b79e9d28a3838284604051611a4a93929190613329565b60405180910390a1505050565b60008311611a9a576040517f08c379a0000000000000000000000000000000000000000000000000000000008152600401611a91906133d2565b60405180910390fd5b6003875111611ade576040517f08c379a0000000000000000000000000000000000000000000000000000000008152600401611ad59061343e565b60405180910390fd5b600a865111611b22576040517f08c379a0000000000000000000000000000000000000000000000000000000008152600401611b19906134d0565b60405180910390fd5b600a855111611b66576040517f08c379a0000000000000000000000000000000000000000000000000000000008152600401611b5d90613562565b60405180910390fd5b600a845111611baa576040517f08c379a0000000000000000000000000000000000000000000000000000000008152600401611ba1906135f4565b60405180910390fd5b6001825111611bee576040517f08c379a0000000000000000000000000000000000000000000000000000000008152600401611be590613686565b60405180910390fd5b600a815111611c32576040517f08c379a0000000000000000000000000000000000000000000000000000000008152600401611c2990613718565b60405180910390fd5b60016000815480929190611c4590613767565b919050555060405180610180016040528060015481526020018881526020018781526020018681526020018581526020016000151581526020016000151581526020016001151581526020013373ffffffffffffffffffffffffffffffffffffffff16815260200184815260200183815260200182815250600260006001548152602001908152602001600020600082015181600001556020820151816001019081611cf19190612db3565b506040820151816002019081611d079190612db3565b506060820151816003019081611d1d9190612db3565b506080820151816004019081611d339190612db3565b5060a08201518160050160006101000a81548160ff02191690831515021790555060c08201518160050160016101000a81548160ff02191690831515021790555060e08201518160050160026101000a81548160ff0219169083151502179055506101008201518160050160036101000a81548173ffffffffffffffffffffffffffffffffffffffff021916908373ffffffffffffffffffffffffffffffffffffffff1602179055506101208201518160060155610140820151816007019081611dfd9190612db3565b50610160820151816008019081611e149190612db3565b509050507f47ae09a9ac6dd4f39bbceb5d27cd489be5af8191ec78abc88493fa2e807a4f03878787876000806001338b8b8b604051611e5d9b9a999897969594939291906137af565b60405180910390a150505050505050565b6002602052806000526040600020600091509050806000015490806001018054611e9790612bd6565b80601f0160208091040260200160405190810160405280929190818152602001828054611ec390612bd6565b8015611f105780601f10611ee557610100808354040283529160200191611f10565b820191906000526020600020905b815481529060010190602001808311611ef357829003601f168201915b505050505090806002018054611f2590612bd6565b80601f0160208091040260200160405190810160405280929190818152602001828054611f5190612bd6565b8015611f9e5780601f10611f7357610100808354040283529160200191611f9e565b820191906000526020600020905b815481529060010190602001808311611f8157829003601f168201915b505050505090806003018054611fb390612bd6565b80601f0160208091040260200160405190810160405280929190818152602001828054611fdf90612bd6565b801561202c5780601f106120015761010080835404028352916020019161202c565b820191906000526020600020905b81548152906001019060200180831161200f57829003601f168201915b50505050509080600401805461204190612bd6565b80601f016020809104026020016040519081016040528092919081815260200182805461206d90612bd6565b80156120ba5780601f1061208f576101008083540402835291602001916120ba565b820191906000526020600020905b81548152906001019060200180831161209d57829003601f168201915b5050505050908060050160009054906101000a900460ff16908060050160019054906101000a900460ff16908060050160029054906101000a900460ff16908060050160039054906101000a900473ffffffffffffffffffffffffffffffffffffffff169080600601549080600701805461213490612bd6565b80601f016020809104026020016040519081016040528092919081815260200182805461216090612bd6565b80156121ad5780601f10612182576101008083540402835291602001916121ad565b820191906000526020600020905b81548152906001019060200180831161219057829003601f168201915b5050505050908060080180546121c290612bd6565b80601f01602080910402602001604051908101604052809291908181526020018280546121ee90612bd6565b801561223b5780601f106122105761010080835404028352916020019161223b565b820191906000526020600020905b81548152906001019060200180831161221e57829003601f168201915b505050505090508c565b600060026000838152602001908152602001600020905060008160050160026101000a81548160ff021916908315150217905550806002600084815260200190815260200160002060008201548160000155600182018160010190816122ab9190612eb6565b50600282018160020190816122c09190612eb6565b50600382018160030190816122d59190612eb6565b50600482018160040190816122ea9190612eb6565b506005820160009054906101000a900460ff168160050160006101000a81548160ff0219169083151502179055506005820160019054906101000a900460ff168160050160016101000a81548160ff0219169083151502179055506005820160029054906101000a900460ff168160050160026101000a81548160ff0219169083151502179055506005820160039054906101000a900473ffffffffffffffffffffffffffffffffffffffff168160050160036101000a81548173ffffffffffffffffffffffffffffffffffffffff021916908373ffffffffffffffffffffffffffffffffffffffff16021790555060068201548160060155600782018160070190816123f79190612eb6565b506008820181600801908161240c9190612eb6565b509050507f2036907e86affdda3b7009508784b569753328a62d5e5457894fa6572e2408c060006040516124409190612e85565b60405180910390a15050565b6000604051905090565b600080fd5b600080fd5b6000819050919050565b61247381612460565b811461247e57600080fd5b50565b6000813590506124908161246a565b92915050565b60008115159050919050565b6124ab81612496565b81146124b657600080fd5b50565b6000813590506124c8816124a2565b92915050565b600080604083850312156124e5576124e4612456565b5b60006124f385828601612481565b9250506020612504858286016124b9565b9150509250929050565b61251781612460565b82525050565b6000602082019050612532600083018461250e565b92915050565b600080fd5b600080fd5b6000601f19601f8301169050919050565b7f4e487b7100000000000000000000000000000000000000000000000000000000600052604160045260246000fd5b61258b82612542565b810181811067ffffffffffffffff821117156125aa576125a9612553565b5b80604052505050565b60006125bd61244c565b90506125c98282612582565b919050565b600067ffffffffffffffff8211156125e9576125e8612553565b5b6125f282612542565b9050602081019050919050565b82818337600083830152505050565b600061262161261c846125ce565b6125b3565b90508281526020810184848401111561263d5761263c61253d565b5b6126488482856125ff565b509392505050565b600082601f83011261266557612664612538565b5b813561267584826020860161260e565b91505092915050565b600080600080600080600080610100898b03121561269f5761269e612456565b5b60006126ad8b828c01612481565b985050602089013567ffffffffffffffff8111156126ce576126cd61245b565b5b6126da8b828c01612650565b975050604089013567ffffffffffffffff8111156126fb576126fa61245b565b5b6127078b828c01612650565b965050606089013567ffffffffffffffff8111156127285761272761245b565b5b6127348b828c01612650565b955050608089013567ffffffffffffffff8111156127555761275461245b565b5b6127618b828c01612650565b94505060a06127728b828c01612481565b93505060c089013567ffffffffffffffff8111156127935761279261245b565b5b61279f8b828c01612650565b92505060e089013567ffffffffffffffff8111156127c0576127bf61245b565b5b6127cc8b828c01612650565b9150509295985092959890939650565b600081519050919050565b600082825260208201905092915050565b60005b838110156128165780820151818401526020810190506127fb565b60008484015250505050565b600061282d826127dc565b61283781856127e7565b93506128478185602086016127f8565b61285081612542565b840191505092915050565b600060208201905081810360008301526128758184612822565b905092915050565b60006020828403121561289357612892612456565b5b60006128a184828501612481565b91505092915050565b600073ffffffffffffffffffffffffffffffffffffffff82169050919050565b60006128d5826128aa565b9050919050565b6128e5816128ca565b81146128f057600080fd5b50565b600081359050612902816128dc565b92915050565b60008060006060848603121561292157612920612456565b5b600061292f86828701612481565b935050602061294086828701612481565b9250506040612951868287016128f3565b9150509250925092565b600080600080600080600060e0888a03121561297a57612979612456565b5b600088013567ffffffffffffffff8111156129985761299761245b565b5b6129a48a828b01612650565b975050602088013567ffffffffffffffff8111156129c5576129c461245b565b5b6129d18a828b01612650565b965050604088013567ffffffffffffffff8111156129f2576129f161245b565b5b6129fe8a828b01612650565b955050606088013567ffffffffffffffff811115612a1f57612a1e61245b565b5b612a2b8a828b01612650565b9450506080612a3c8a828b01612481565b93505060a088013567ffffffffffffffff811115612a5d57612a5c61245b565b5b612a698a828b01612650565b92505060c088013567ffffffffffffffff811115612a8a57612a8961245b565b5b612a968a828b01612650565b91505092959891949750929550565b612aae81612496565b82525050565b612abd816128ca565b82525050565b600061018082019050612ad9600083018f61250e565b8181036020830152612aeb818e612822565b90508181036040830152612aff818d612822565b90508181036060830152612b13818c612822565b90508181036080830152612b27818b612822565b9050612b3660a083018a612aa5565b612b4360c0830189612aa5565b612b5060e0830188612aa5565b612b5e610100830187612ab4565b612b6c61012083018661250e565b818103610140830152612b7f8185612822565b9050818103610160830152612b948184612822565b90509d9c50505050505050505050505050565b7f4e487b7100000000000000000000000000000000000000000000000000000000600052602260045260246000fd5b60006002820490506001821680612bee57607f821691505b602082108103612c0157612c00612ba7565b5b50919050565b60008190508160005260206000209050919050565b60006020601f8301049050919050565b600082821b905092915050565b600060088302612c697fffffffffffffffffffffffffffffffffffffffffffffffffffffffffffffffff82612c2c565b612c738683612c2c565b95508019841693508086168417925050509392505050565b6000819050919050565b6000612cb0612cab612ca684612460565b612c8b565b612460565b9050919050565b6000819050919050565b612cca83612c95565b612cde612cd682612cb7565b848454612c39565b825550505050565b600090565b612cf3612ce6565b612cfe818484612cc1565b505050565b5b81811015612d2257612d17600082612ceb565b600181019050612d04565b5050565b601f821115612d6757612d3881612c07565b612d4184612c1c565b81016020851015612d50578190505b612d64612d5c85612c1c565b830182612d03565b50505b505050565b600082821c905092915050565b6000612d8a60001984600802612d6c565b1980831691505092915050565b6000612da38383612d79565b9150826002028217905092915050565b612dbc826127dc565b67ffffffffffffffff811115612dd557612dd4612553565b5b612ddf8254612bd6565b612dea828285612d26565b600060209050601f831160018114612e1d5760008415612e0b578287015190505b612e158582612d97565b865550612e7d565b601f198416612e2b86612c07565b60005b82811015612e5357848901518255600182019150602085019450602081019050612e2e565b86831015612e705784890151612e6c601f891682612d79565b8355505b6001600288020188555050505b505050505050565b6000602082019050612e9a6000830184612aa5565b92915050565b600081549050612eaf81612bd6565b9050919050565b818103612ec4575050612f9c565b612ecd82612ea0565b67ffffffffffffffff811115612ee657612ee5612553565b5b612ef08254612bd6565b612efb828285612d26565b6000601f831160018114612f2a5760008415612f18578287015490505b612f228582612d97565b865550612f95565b601f198416612f3887612c07565b9650612f4386612c07565b60005b82811015612f6b57848901548255600182019150600185019450602081019050612f46565b86831015612f885784890154612f84601f891682612d79565b8355505b6001600288020188555050505b5050505050505b565b600061010082019050612fb4600083018b61250e565b8181036020830152612fc6818a612822565b90508181036040830152612fda8189612822565b90508181036060830152612fee8188612822565b905081810360808301526130028187612822565b905061301160a083018661250e565b81810360c08301526130238185612822565b905081810360e08301526130378184612822565b90509998505050505050505050565b7f546869732050726f6475637420536f6c64656400000000000000000000000000600082015250565b600061307c6013836127e7565b915061308782613046565b602082019050919050565b600060208201905081810360008301526130ab8161306f565b9050919050565b7f43616e204e6f742042757920796f75722050726f647563740000000000000000600082015250565b60006130e86018836127e7565b91506130f3826130b2565b602082019050919050565b60006020820190508181036000830152613117816130db565b9050919050565b7f546865206d6f756e7420752073656e64202073686f756c64206265206571756160008201527f6c2070726f647563742070726963652000000000000000000000000000000000602082015250565b600061317a6030836127e7565b91506131858261311e565b604082019050919050565b600060208201905081810360008301526131a98161316d565b9050919050565b600060808201905081810360008301526131ca8187612822565b90506131d96020830186612aa5565b6131e66040830185612ab4565b6131f3606083018461250e565b95945050505050565b7f50726f6475637420646f6573206e6f7420657869737400000000000000000000600082015250565b60006132326016836127e7565b915061323d826131fc565b602082019050919050565b6000602082019050818103600083015261326181613225565b9050919050565b7f50726f64756374206973206e6f74206265696e67206269640000000000000000600082015250565b600061329e6018836127e7565b91506132a982613268565b602082019050919050565b600060208201905081810360008301526132cd81613291565b9050919050565b60006132ef6132ea6132e5846128aa565b612c8b565b6128aa565b9050919050565b6000613301826132d4565b9050919050565b6000613313826132f6565b9050919050565b61332381613308565b82525050565b600060608201905061333e600083018661250e565b61334b602083018561331a565b613358604083018461250e565b949350505050565b7f5468652050726963652053686f756c64206265206c6172676572207468616e2060008201527f3000000000000000000000000000000000000000000000000000000000000000602082015250565b60006133bc6021836127e7565b91506133c782613360565b604082019050919050565b600060208201905081810360008301526133eb816133af565b9050919050565b7f546865204e616d652053686f756c64206265206c6172676572207468616e2033600082015250565b60006134286020836127e7565b9150613433826133f2565b602082019050919050565b600060208201905081810360008301526134578161341b565b9050919050565b7f546865206465736372697074696f6e2053686f756c64206265206c617267657260008201527f207468616e203130000000000000000000000000000000000000000000000000602082015250565b60006134ba6028836127e7565b91506134c58261345e565b604082019050919050565b600060208201905081810360008301526134e9816134ad565b9050919050565b7f546865206465736372697074696f6e20707269766174652053686f756c64206260008201527f65206c6172676572207468616e20313000000000000000000000000000000000602082015250565b600061354c6030836127e7565b9150613557826134f0565b604082019050919050565b6000602082019050818103600083015261357b8161353f565b9050919050565b7f54686520696d6167652055726c2053686f756c64206265206c6172676572207460008201527f68616e2033000000000000000000000000000000000000000000000000000000602082015250565b60006135de6025836127e7565b91506135e982613582565b604082019050919050565b6000602082019050818103600083015261360d816135d1565b9050919050565b7f5468652063617465676f72792053686f756c64206265206c617267657220746860008201527f616e203100000000000000000000000000000000000000000000000000000000602082015250565b60006136706024836127e7565b915061367b82613614565b604082019050919050565b6000602082019050818103600083015261369f81613663565b9050919050565b7f5468652071722055726c2053686f756c64206265206c6172676572207468616e60008201527f2033000000000000000000000000000000000000000000000000000000000000602082015250565b60006137026022836127e7565b915061370d826136a6565b604082019050919050565b60006020820190508181036000830152613731816136f5565b9050919050565b7f4e487b7100000000000000000000000000000000000000000000000000000000600052601160045260246000fd5b600061377282612460565b91507fffffffffffffffffffffffffffffffffffffffffffffffffffffffffffffffff82036137a4576137a3613738565b5b600182019050919050565b60006101608201905081810360008301526137ca818e612822565b905081810360208301526137de818d612822565b905081810360408301526137f2818c612822565b90508181036060830152613806818b612822565b9050613815608083018a612aa5565b61382260a0830189612aa5565b61382f60c0830188612aa5565b61383c60e0830187612ab4565b61384a61010083018661250e565b81810361012083015261385d8185612822565b90508181036101408301526138728184612822565b90509c9b50505050505050505050505056fea264697066735822122038525a75215a45f3e4e19205663ed8291a2b7359a960db0508215346ba71ad6864736f6c63430008180033",
  "linkReferences": {},
  "deployedLinkReferences": {}
}